{
  "_format": "hh-sol-artifact-1",
  "contractName": "VotingSystem",
  "sourceName": "contracts/VotingSystem.sol",
  "abi": [
    {
      "inputs": [],
      "stateMutability": "nonpayable",
      "type": "constructor"
    },
    {
      "anonymous": false,
      "inputs": [
        {
          "indexed": false,
          "internalType": "uint256",
          "name": "pollId",
          "type": "uint256"
        },
        {
          "indexed": false,
          "internalType": "string",
          "name": "rollNumber",
          "type": "string"
        }
      ],
      "name": "CandidateJoined",
      "type": "event"
    },
    {
      "anonymous": false,
      "inputs": [
        {
          "indexed": false,
          "internalType": "string",
          "name": "rollNumber",
          "type": "string"
        },
        {
          "indexed": false,
          "internalType": "uint256",
          "name": "pollId",
          "type": "uint256"
        }
      ],
      "name": "CandidateNotParticipated",
      "type": "event"
    },
    {
      "anonymous": false,
      "inputs": [
        {
          "indexed": false,
          "internalType": "string",
          "name": "rollNumber",
          "type": "string"
        },
        {
          "indexed": false,
          "internalType": "uint256",
          "name": "pollId",
          "type": "uint256"
        }
      ],
      "name": "CandidateRegistered",
      "type": "event"
    },
    {
      "anonymous": false,
      "inputs": [
        {
          "indexed": false,
          "internalType": "string",
          "name": "rollNumber",
          "type": "string"
        },
        {
          "indexed": false,
          "internalType": "uint256",
          "name": "pollId",
          "type": "uint256"
        }
      ],
      "name": "CommitteeMemberElected",
      "type": "event"
    },
    {
      "anonymous": false,
      "inputs": [
        {
          "indexed": false,
          "internalType": "string[]",
          "name": "newMembers",
          "type": "string[]"
        }
      ],
      "name": "CommitteeUpdated",
      "type": "event"
    },
    {
      "anonymous": false,
      "inputs": [
        {
          "indexed": false,
          "internalType": "uint256",
          "name": "pollId",
          "type": "uint256"
        }
      ],
      "name": "PollCompleted",
      "type": "event"
    },
    {
      "anonymous": false,
      "inputs": [
        {
          "indexed": false,
          "internalType": "uint256",
          "name": "pollId",
          "type": "uint256"
        },
        {
          "indexed": false,
          "internalType": "string",
          "name": "byRoll",
          "type": "string"
        },
        {
          "indexed": false,
          "internalType": "enum VotingSystem.PollType",
          "name": "pollType",
          "type": "uint8"
        }
      ],
      "name": "PollInitiated",
      "type": "event"
    },
    {
      "anonymous": false,
      "inputs": [
        {
          "indexed": false,
          "internalType": "uint256",
          "name": "pollId",
          "type": "uint256"
        }
      ],
      "name": "PollStarted",
      "type": "event"
    },
    {
      "anonymous": false,
      "inputs": [
        {
          "indexed": false,
          "internalType": "string",
          "name": "rollNumber",
          "type": "string"
        },
        {
          "indexed": false,
          "internalType": "uint256",
          "name": "pollId",
          "type": "uint256"
        }
      ],
      "name": "VoteMissed",
      "type": "event"
    },
    {
      "anonymous": false,
      "inputs": [
        {
          "indexed": false,
          "internalType": "uint256",
          "name": "pollId",
          "type": "uint256"
        },
        {
          "indexed": false,
          "internalType": "string",
          "name": "rollNumber",
          "type": "string"
        },
        {
          "indexed": false,
          "internalType": "string",
          "name": "option",
          "type": "string"
        }
      ],
      "name": "Voted",
      "type": "event"
    },
    {
      "anonymous": false,
      "inputs": [
        {
          "indexed": false,
          "internalType": "string",
          "name": "rollNumber",
          "type": "string"
        },
        {
          "indexed": false,
          "internalType": "uint256",
          "name": "pollId",
          "type": "uint256"
        },
        {
          "indexed": false,
          "internalType": "string",
          "name": "pollType",
          "type": "string"
        }
      ],
      "name": "VotedAndRewarded",
      "type": "event"
    },
    {
      "inputs": [],
      "name": "admin",
      "outputs": [
        {
          "internalType": "address",
          "name": "",
          "type": "address"
        }
      ],
      "stateMutability": "view",
      "type": "function"
    },
    {
      "inputs": [],
      "name": "adminGracePeriod",
      "outputs": [
        {
          "internalType": "uint256",
          "name": "",
          "type": "uint256"
        }
      ],
      "stateMutability": "view",
      "type": "function"
    },
    {
      "inputs": [],
      "name": "candidateJoinDuration",
      "outputs": [
        {
          "internalType": "uint256",
          "name": "",
          "type": "uint256"
        }
      ],
      "stateMutability": "view",
      "type": "function"
    },
    {
      "inputs": [],
      "name": "candidateJoinExtension",
      "outputs": [
        {
          "internalType": "uint256",
          "name": "",
          "type": "uint256"
        }
      ],
      "stateMutability": "view",
      "type": "function"
    },
    {
      "inputs": [
        {
          "internalType": "uint256",
          "name": "pollId",
          "type": "uint256"
        }
      ],
      "name": "completePoll",
      "outputs": [],
      "stateMutability": "nonpayable",
      "type": "function"
    },
    {
      "inputs": [
        {
          "internalType": "string",
          "name": "title",
          "type": "string"
        },
        {
          "internalType": "string[]",
          "name": "options",
          "type": "string[]"
        },
        {
          "internalType": "uint256",
          "name": "duration",
          "type": "uint256"
        },
        {
          "internalType": "string",
          "name": "creatorRoll",
          "type": "string"
        }
      ],
      "name": "createGeneralPoll",
      "outputs": [],
      "stateMutability": "nonpayable",
      "type": "function"
    },
    {
      "inputs": [
        {
          "internalType": "uint256",
          "name": "",
          "type": "uint256"
        }
      ],
      "name": "currentCommitteeMembers",
      "outputs": [
        {
          "internalType": "string",
          "name": "",
          "type": "string"
        }
      ],
      "stateMutability": "view",
      "type": "function"
    },
    {
      "inputs": [],
      "name": "getCurrentSemesterStart",
      "outputs": [
        {
          "internalType": "uint256",
          "name": "",
          "type": "uint256"
        }
      ],
      "stateMutability": "view",
      "type": "function"
    },
    {
      "inputs": [
        {
          "internalType": "uint256",
          "name": "pollId",
          "type": "uint256"
        }
      ],
      "name": "getPollVoters",
      "outputs": [
        {
          "internalType": "string[]",
          "name": "",
          "type": "string[]"
        }
      ],
      "stateMutability": "view",
      "type": "function"
    },
    {
      "inputs": [
        {
          "internalType": "uint256",
          "name": "pollId",
          "type": "uint256"
        }
      ],
      "name": "getTopCandidates",
      "outputs": [
        {
          "internalType": "string[]",
          "name": "",
          "type": "string[]"
        }
      ],
      "stateMutability": "view",
      "type": "function"
    },
    {
      "inputs": [
        {
          "internalType": "uint256",
          "name": "pollId",
          "type": "uint256"
        },
        {
          "internalType": "string",
          "name": "rollNumber",
          "type": "string"
        }
      ],
      "name": "getVotedCandidate",
      "outputs": [
        {
          "internalType": "string",
          "name": "",
          "type": "string"
        }
      ],
      "stateMutability": "view",
      "type": "function"
    },
    {
      "inputs": [
        {
          "internalType": "string",
          "name": "rollNumber",
          "type": "string"
        }
      ],
      "name": "initiateCommitteePoll",
      "outputs": [],
      "stateMutability": "nonpayable",
      "type": "function"
    },
    {
      "inputs": [
        {
          "internalType": "string",
          "name": "",
          "type": "string"
        }
      ],
      "name": "isCommitteeMember",
      "outputs": [
        {
          "internalType": "bool",
          "name": "",
          "type": "bool"
        }
      ],
      "stateMutability": "view",
      "type": "function"
    },
    {
      "inputs": [
        {
          "internalType": "address",
          "name": "",
          "type": "address"
        }
      ],
      "name": "isCommitteeMemberByAddress",
      "outputs": [
        {
          "internalType": "bool",
          "name": "",
          "type": "bool"
        }
      ],
      "stateMutability": "view",
      "type": "function"
    },
    {
      "inputs": [
        {
          "internalType": "uint256",
          "name": "pollId",
          "type": "uint256"
        },
        {
          "internalType": "string",
          "name": "rollNumber",
          "type": "string"
        }
      ],
      "name": "joinCandidate",
      "outputs": [],
      "stateMutability": "nonpayable",
      "type": "function"
    },
    {
      "inputs": [],
      "name": "pollCount",
      "outputs": [
        {
          "internalType": "uint256",
          "name": "",
          "type": "uint256"
        }
      ],
      "stateMutability": "view",
      "type": "function"
    },
    {
      "inputs": [
        {
          "internalType": "uint256",
          "name": "",
          "type": "uint256"
        }
      ],
      "name": "polls",
      "outputs": [
        {
          "internalType": "uint256",
          "name": "id",
          "type": "uint256"
        },
        {
          "internalType": "string",
          "name": "title",
          "type": "string"
        },
        {
          "internalType": "enum VotingSystem.PollType",
          "name": "pollType",
          "type": "uint8"
        },
        {
          "internalType": "bool",
          "name": "isInitiated",
          "type": "bool"
        },
        {
          "internalType": "bool",
          "name": "isStarted",
          "type": "bool"
        },
        {
          "internalType": "bool",
          "name": "isCompleted",
          "type": "bool"
        },
        {
          "internalType": "uint256",
          "name": "startTime",
          "type": "uint256"
        },
        {
          "internalType": "uint256",
          "name": "endTime",
          "type": "uint256"
        },
        {
          "internalType": "uint256",
          "name": "candidateJoinStart",
          "type": "uint256"
        },
        {
          "internalType": "uint256",
          "name": "candidateJoinEnd",
          "type": "uint256"
        },
        {
          "internalType": "string",
          "name": "creatorRoll",
          "type": "string"
        }
      ],
      "stateMutability": "view",
      "type": "function"
    },
    {
      "inputs": [],
      "name": "semesterStartDateAug",
      "outputs": [
        {
          "internalType": "uint256",
          "name": "",
          "type": "uint256"
        }
      ],
      "stateMutability": "view",
      "type": "function"
    },
    {
      "inputs": [],
      "name": "semesterStartDateJan",
      "outputs": [
        {
          "internalType": "uint256",
          "name": "",
          "type": "uint256"
        }
      ],
      "stateMutability": "view",
      "type": "function"
    },
    {
      "inputs": [
        {
          "internalType": "uint256",
          "name": "pollId",
          "type": "uint256"
        }
      ],
      "name": "startVotingPhase",
      "outputs": [],
      "stateMutability": "nonpayable",
      "type": "function"
    },
    {
      "inputs": [
        {
          "internalType": "uint256",
          "name": "_candidateJoinDuration",
          "type": "uint256"
        },
        {
          "internalType": "uint256",
          "name": "_candidateJoinExtension",
          "type": "uint256"
        },
        {
          "internalType": "uint256",
          "name": "_votingDuration",
          "type": "uint256"
        },
        {
          "internalType": "uint256",
          "name": "_adminGracePeriod",
          "type": "uint256"
        }
      ],
      "name": "updateDurations",
      "outputs": [],
      "stateMutability": "nonpayable",
      "type": "function"
    },
    {
      "inputs": [
        {
          "internalType": "uint256",
          "name": "janTimestamp",
          "type": "uint256"
        },
        {
          "internalType": "uint256",
          "name": "augTimestamp",
          "type": "uint256"
        }
      ],
      "name": "updateSemesterStartDates",
      "outputs": [],
      "stateMutability": "nonpayable",
      "type": "function"
    },
    {
      "inputs": [
        {
          "internalType": "uint256",
          "name": "pollId",
          "type": "uint256"
        },
        {
          "internalType": "string",
          "name": "rollNumber",
          "type": "string"
        },
        {
          "internalType": "uint256",
          "name": "optionIndex",
          "type": "uint256"
        }
      ],
      "name": "vote",
      "outputs": [],
      "stateMutability": "nonpayable",
      "type": "function"
    },
    {
      "inputs": [],
      "name": "votingDuration",
      "outputs": [
        {
          "internalType": "uint256",
          "name": "",
          "type": "uint256"
        }
      ],
      "stateMutability": "view",
      "type": "function"
    }
  ],
  "bytecode": "0x608060405262015180600555620151806006556202a3006007556213c68060085563659200806009556366aad000600a5534801561003c57600080fd5b50336000806101000a81548173ffffffffffffffffffffffffffffffffffffffff021916908373ffffffffffffffffffffffffffffffffffffffff1602179055506131738061008c6000396000f3fe608060405234801561001057600080fd5b50600436106101585760003560e01c80636ebb8b83116100c3578063c02cf58f1161007c578063c02cf58f146103e3578063d5a8da6014610401578063d85ba9981461041d578063dfdf47a01461044d578063f0f454571461046b578063f851a4401461048757610158565b80636ebb8b83146103195780638b26f414146103355780639207891d146103535780639897b5c1146103715780639bb8d7781461038d578063ac2f0074146103a957610158565b806321c6e7701161011557806321c6e770146102215780632d9750b81461025157806333e0e2d11461026d5780635ce8b0c41461029d5780635edaa878146102cd5780636a98020c146102e957610158565b8063066a9fe11461015d5780630940f3191461017b578063120b9d1414610197578063132002fc146101b55780631d9cfc48146101d357806320de7032146101f1575b600080fd5b6101656104a5565b6040516101729190611b79565b60405180910390f35b61019560048036038101906101909190611bd4565b6104ab565b005b61019f61054b565b6040516101ac9190611b79565b60405180910390f35b6101bd610551565b6040516101ca9190611b79565b60405180910390f35b6101db610557565b6040516101e89190611b79565b60405180910390f35b61020b60048036038101906102069190611d5a565b61055d565b6040516102189190611e35565b60405180910390f35b61023b60048036038101906102369190611e57565b6106b5565b6040516102489190611e35565b60405180910390f35b61026b60048036038101906102669190611e84565b610761565b005b61028760048036038101906102829190611f49565b610811565b6040516102949190611f91565b60405180910390f35b6102b760048036038101906102b29190611e57565b610831565b6040516102c491906120b8565b60405180910390f35b6102e760048036038101906102e29190611e57565b610920565b005b61030360048036038101906102fe9190611e57565b610ac5565b60405161031091906120b8565b60405180910390f35b610333600480360381019061032e91906120da565b610bba565b005b61033d610d51565b60405161034a9190611b79565b60405180910390f35b61035b610d57565b6040516103689190611b79565b60405180910390f35b61038b60048036038101906103869190611d5a565b610d5d565b005b6103a760048036038101906103a29190612209565b610ef1565b005b6103c360048036038101906103be9190611e57565b61113c565b6040516103da9b9a9998979695949392919061233b565b60405180910390f35b6103eb6112da565b6040516103f89190611b79565b60405180910390f35b61041b60048036038101906104169190611e57565b6112e0565b005b610437600480360381019061043291906120da565b611447565b6040516104449190611f91565b60405180910390f35b61045561147d565b6040516104629190611b79565b60405180910390f35b610485600480360381019061048091906123f4565b6114b5565b005b61048f611815565b60405161049c9190612472565b60405180910390f35b60085481565b60008054906101000a900473ffffffffffffffffffffffffffffffffffffffff1673ffffffffffffffffffffffffffffffffffffffff163373ffffffffffffffffffffffffffffffffffffffff1614610539576040517f08c379a0000000000000000000000000000000000000000000000000000000008152600401610530906124d9565b60405180910390fd5b8160098190555080600a819055505050565b600a5481565b60075481565b60065481565b6060600060026000858152602001908152602001600020905080600901836040516105889190612535565b908152602001604051809103902060009054906101000a900460ff166105e3576040517f08c379a00000000000000000000000000000000000000000000000000000000081526004016105da90612598565b60405180910390fd5b8060070181600b01846040516105f99190612535565b90815260200160405180910390205481548110610619576106186125b8565b5b90600052602060002001805461062e90612616565b80601f016020809104026020016040519081016040528092919081815260200182805461065a90612616565b80156106a75780601f1061067c576101008083540402835291602001916106a7565b820191906000526020600020905b81548152906001019060200180831161068a57829003601f168201915b505050505091505092915050565b600481815481106106c557600080fd5b9060005260206000200160009150905080546106e090612616565b80601f016020809104026020016040519081016040528092919081815260200182805461070c90612616565b80156107595780601f1061072e57610100808354040283529160200191610759565b820191906000526020600020905b81548152906001019060200180831161073c57829003601f168201915b505050505081565b60008054906101000a900473ffffffffffffffffffffffffffffffffffffffff1673ffffffffffffffffffffffffffffffffffffffff163373ffffffffffffffffffffffffffffffffffffffff16146107ef576040517f08c379a00000000000000000000000000000000000000000000000000000000081526004016107e6906124d9565b60405180910390fd5b8360058190555082600681905550816007819055508060088190555050505050565b600b6020528060005260406000206000915054906101000a900460ff1681565b606060026000838152602001908152602001600020600c01805480602002602001604051908101604052809291908181526020016000905b8282101561091557838290600052602060002001805461088890612616565b80601f01602080910402602001604051908101604052809291908181526020018280546108b490612616565b80156109015780601f106108d657610100808354040283529160200191610901565b820191906000526020600020905b8154815290600101906020018083116108e457829003601f168201915b505050505081526020019060010190610869565b505050509050919050565b60008054906101000a900473ffffffffffffffffffffffffffffffffffffffff1673ffffffffffffffffffffffffffffffffffffffff163373ffffffffffffffffffffffffffffffffffffffff16146109ae576040517f08c379a00000000000000000000000000000000000000000000000000000000081526004016109a5906124d9565b60405180910390fd5b60006002600083815260200190815260200160002090508060020160039054906101000a900460ff161580156109e75750806004015442115b610a26576040517f08c379a0000000000000000000000000000000000000000000000000000000008152600401610a1d90612693565b60405180910390fd5b60018160020160036101000a81548160ff0219169083151502179055507feebbfa7f1130139de7813f57f4f13fbd3c4f5fa60c6178d2cd77cb3a6422d91182604051610a729190611b79565b60405180910390a160006001811115610a8e57610a8d6122c4565b5b8160020160009054906101000a900460ff166001811115610ab257610ab16122c4565b5b03610ac157610ac082611839565b5b5050565b6060600060026000848152602001908152602001600020905080600d01805480602002602001604051908101604052809291908181526020016000905b82821015610bae578382906000526020600020018054610b2190612616565b80601f0160208091040260200160405190810160405280929190818152602001828054610b4d90612616565b8015610b9a5780601f10610b6f57610100808354040283529160200191610b9a565b820191906000526020600020905b815481529060010190602001808311610b7d57829003601f168201915b505050505081526020019060010190610b02565b50505050915050919050565b600854610bc561147d565b610bcf91906126e2565b421015610c11576040517f08c379a0000000000000000000000000000000000000000000000000000000008152600401610c0890612762565b60405180910390fd5b60016000815480929190610c2490612782565b919050555060006002600060015481526020019081526020016000209050600154816000018190555060008160020160006101000a81548160ff02191690836001811115610c7557610c746122c4565b5b021790555060018160020160016101000a81548160ff02191690831515021790555081816008019081610ca89190612976565b506040518060400160405280601781526020017f4d65737320436f6d6d697474656520456c656374696f6e000000000000000000815250816001019081610cef9190612976565b5042816005018190555060055442610d0791906126e2565b81600601819055507f034f7584e201f51a23d727c956e641842e01417692a41a2f189f32509313eb0b600154836000604051610d4593929190612a48565b60405180910390a15050565b60055481565b60015481565b600060026000848152602001908152602001600020905060006001811115610d8857610d876122c4565b5b8160020160009054906101000a900460ff166001811115610dac57610dab6122c4565b5b14610dec576040517f08c379a0000000000000000000000000000000000000000000000000000000008152600401610de390612ad2565b60405180910390fd5b80600501544210158015610e04575080600601544211155b610e43576040517f08c379a0000000000000000000000000000000000000000000000000000000008152600401610e3a90612b3e565b60405180910390fd5b80600d0182908060018154018082558091505060019003906000526020600020016000909190919091509081610e799190612976565b507facff172a0bd73d3cbe8b112674115ee24cce5b714906ff99c3ce018a89fa5a728383604051610eab929190612b5e565b60405180910390a17f86a1da2b43bd37b36bd408e8cd0977a58e5d4292315a151cdd900dae8e9c5cea8284604051610ee4929190612b8e565b60405180910390a1505050565b60008054906101000a900473ffffffffffffffffffffffffffffffffffffffff1673ffffffffffffffffffffffffffffffffffffffff163373ffffffffffffffffffffffffffffffffffffffff161480610f945750600b60003373ffffffffffffffffffffffffffffffffffffffff1673ffffffffffffffffffffffffffffffffffffffff16815260200190815260200160002060009054906101000a900460ff165b610fd3576040517f08c379a0000000000000000000000000000000000000000000000000000000008152600401610fca90612c0a565b60405180910390fd5b60016000815480929190610fe690612782565b9190505550600060026000600154815260200190815260200160002090506001548160000181905550848160010190816110209190612976565b5060018160020160006101000a81548160ff02191690836001811115611049576110486122c4565b5b021790555083816007019080519060200190611066929190611a65565b50428160030181905550824261107c91906126e2565b816004018190555060018160020160016101000a81548160ff02191690831515021790555060018160020160026101000a81548160ff0219169083151502179055507f034f7584e201f51a23d727c956e641842e01417692a41a2f189f32509313eb0b6001548360016040516110f493929190612a48565b60405180910390a17f928c4911106538148065e238ed4194e64d48c07427a4d2c07829ae7bc480f42760015460405161112d9190611b79565b60405180910390a15050505050565b600260205280600052604060002060009150905080600001549080600101805461116590612616565b80601f016020809104026020016040519081016040528092919081815260200182805461119190612616565b80156111de5780601f106111b3576101008083540402835291602001916111de565b820191906000526020600020905b8154815290600101906020018083116111c157829003601f168201915b5050505050908060020160009054906101000a900460ff16908060020160019054906101000a900460ff16908060020160029054906101000a900460ff16908060020160039054906101000a900460ff169080600301549080600401549080600501549080600601549080600801805461125790612616565b80601f016020809104026020016040519081016040528092919081815260200182805461128390612616565b80156112d05780601f106112a5576101008083540402835291602001916112d0565b820191906000526020600020905b8154815290600101906020018083116112b357829003601f168201915b505050505090508b565b60095481565b60008054906101000a900473ffffffffffffffffffffffffffffffffffffffff1673ffffffffffffffffffffffffffffffffffffffff163373ffffffffffffffffffffffffffffffffffffffff161461136e576040517f08c379a0000000000000000000000000000000000000000000000000000000008152600401611365906124d9565b60405180910390fd5b6000600260008381526020019081526020016000209050600281600d018054905010156113d0576040517f08c379a00000000000000000000000000000000000000000000000000000000081526004016113c790612c76565b60405180910390fd5b60018160020160026101000a81548160ff0219169083151502179055504281600301819055506007544261140491906126e2565b81600401819055507f928c4911106538148065e238ed4194e64d48c07427a4d2c07829ae7bc480f4278260405161143b9190611b79565b60405180910390a15050565b6003818051602081018201805184825260208301602085012081835280955050505050506000915054906101000a900460ff1681565b60008061148942611a3f565b9050600060095490506000600a5490508042106114ab578093505050506114b2565b8193505050505b90565b60006002600085815260200190815260200160002090508060020160029054906101000a900460ff1661151d576040517f08c379a000000000000000000000000000000000000000000000000000000000815260040161151490612ce2565b60405180910390fd5b80600301544210158015611535575080600401544211155b611574576040517f08c379a000000000000000000000000000000000000000000000000000000000815260040161156b90612d4e565b60405180910390fd5b80600901836040516115869190612535565b908152602001604051809103902060009054906101000a900460ff16156115e2576040517f08c379a00000000000000000000000000000000000000000000000000000000081526004016115d990612dba565b60405180910390fd5b600181600901846040516115f69190612535565b908152602001604051809103902060006101000a81548160ff0219169083151502179055508181600b018460405161162e9190612535565b90815260200160405180910390208190555080600a0181600701838154811061165a576116596125b8565b5b906000526020600020016040516116719190612e5d565b9081526020016040518091039020600081548092919061169090612782565b919050555080600c01839080600181540180825580915050600190039060005260206000200160009091909190915090816116cb9190612976565b507ff3cd7e5235d82e2f00240b3d9d6d3b0c11f78bbfc25c1f941837d40002f2d4b88484836007018581548110611705576117046125b8565b5b9060005260206000200160405161171e93929190612ef8565b60405180910390a17fda8dedb4068ebc1b5437fc21a322e200341dd5dc22d4435abcf80e5fd7e10f0e83856000600181111561175d5761175c6122c4565b5b8460020160009054906101000a900460ff166001811115611781576117806122c4565b5b146117c1576040518060400160405280600781526020017f47656e6572616c000000000000000000000000000000000000000000000000008152506117f8565b6040518060400160405280600981526020017f436f6d6d697474656500000000000000000000000000000000000000000000008152505b60405161180793929190612f3d565b60405180910390a150505050565b60008054906101000a900473ffffffffffffffffffffffffffffffffffffffff1681565b60005b6004805490508110156118b0576000600360048381548110611861576118606125b8565b5b906000526020600020016040516118789190612e5d565b908152602001604051809103902060006101000a81548160ff02191690831515021790555080806118a890612782565b91505061183c565b50600460006118bf9190611abe565b600060026000838152602001908152602001600020905060006118e183610ac5565b905060005b8151811080156118f65750600581105b15611a015760016003838381518110611912576119116125b8565b5b60200260200101516040516119279190612535565b908152602001604051809103902060006101000a81548160ff0219169083151502179055506004828281518110611961576119606125b8565b5b602002602001015190806001815401808255809150506001900390600052602060002001600090919091909150908161199a9190612976565b507fb736f330c4e2ff32afe5b6736751ca99a5de6dd4b06f4b524b6e14d780de6dd78282815181106119cf576119ce6125b8565b5b6020026020010151856040516119e6929190612b8e565b60405180910390a180806119f990612782565b9150506118e6565b507f7f5271f5a9265683434272df724eeb23dac6d880c569113c6991dd09dcb36db16004604051611a3291906130bb565b60405180910390a1505050565b60006107b26301e1853e83611a54919061310c565b611a5e91906126e2565b9050919050565b828054828255906000526020600020908101928215611aad579160200282015b82811115611aac578251829081611a9c9190612976565b5091602001919060010190611a85565b5b509050611aba9190611adf565b5090565b5080546000825590600052602060002090810190611adc9190611adf565b50565b5b80821115611aff5760008181611af69190611b03565b50600101611ae0565b5090565b508054611b0f90612616565b6000825580601f10611b215750611b40565b601f016020900490600052602060002090810190611b3f9190611b43565b5b50565b5b80821115611b5c576000816000905550600101611b44565b5090565b6000819050919050565b611b7381611b60565b82525050565b6000602082019050611b8e6000830184611b6a565b92915050565b6000604051905090565b600080fd5b600080fd5b611bb181611b60565b8114611bbc57600080fd5b50565b600081359050611bce81611ba8565b92915050565b60008060408385031215611beb57611bea611b9e565b5b6000611bf985828601611bbf565b9250506020611c0a85828601611bbf565b9150509250929050565b600080fd5b600080fd5b6000601f19601f8301169050919050565b7f4e487b7100000000000000000000000000000000000000000000000000000000600052604160045260246000fd5b611c6782611c1e565b810181811067ffffffffffffffff82111715611c8657611c85611c2f565b5b80604052505050565b6000611c99611b94565b9050611ca58282611c5e565b919050565b600067ffffffffffffffff821115611cc557611cc4611c2f565b5b611cce82611c1e565b9050602081019050919050565b82818337600083830152505050565b6000611cfd611cf884611caa565b611c8f565b905082815260208101848484011115611d1957611d18611c19565b5b611d24848285611cdb565b509392505050565b600082601f830112611d4157611d40611c14565b5b8135611d51848260208601611cea565b91505092915050565b60008060408385031215611d7157611d70611b9e565b5b6000611d7f85828601611bbf565b925050602083013567ffffffffffffffff811115611da057611d9f611ba3565b5b611dac85828601611d2c565b9150509250929050565b600081519050919050565b600082825260208201905092915050565b60005b83811015611df0578082015181840152602081019050611dd5565b60008484015250505050565b6000611e0782611db6565b611e118185611dc1565b9350611e21818560208601611dd2565b611e2a81611c1e565b840191505092915050565b60006020820190508181036000830152611e4f8184611dfc565b905092915050565b600060208284031215611e6d57611e6c611b9e565b5b6000611e7b84828501611bbf565b91505092915050565b60008060008060808587031215611e9e57611e9d611b9e565b5b6000611eac87828801611bbf565b9450506020611ebd87828801611bbf565b9350506040611ece87828801611bbf565b9250506060611edf87828801611bbf565b91505092959194509250565b600073ffffffffffffffffffffffffffffffffffffffff82169050919050565b6000611f1682611eeb565b9050919050565b611f2681611f0b565b8114611f3157600080fd5b50565b600081359050611f4381611f1d565b92915050565b600060208284031215611f5f57611f5e611b9e565b5b6000611f6d84828501611f34565b91505092915050565b60008115159050919050565b611f8b81611f76565b82525050565b6000602082019050611fa66000830184611f82565b92915050565b600081519050919050565b600082825260208201905092915050565b6000819050602082019050919050565b600082825260208201905092915050565b6000611ff482611db6565b611ffe8185611fd8565b935061200e818560208601611dd2565b61201781611c1e565b840191505092915050565b600061202e8383611fe9565b905092915050565b6000602082019050919050565b600061204e82611fac565b6120588185611fb7565b93508360208202850161206a85611fc8565b8060005b858110156120a657848403895281516120878582612022565b945061209283612036565b925060208a0199505060018101905061206e565b50829750879550505050505092915050565b600060208201905081810360008301526120d28184612043565b905092915050565b6000602082840312156120f0576120ef611b9e565b5b600082013567ffffffffffffffff81111561210e5761210d611ba3565b5b61211a84828501611d2c565b91505092915050565b600067ffffffffffffffff82111561213e5761213d611c2f565b5b602082029050602081019050919050565b600080fd5b600061216761216284612123565b611c8f565b9050808382526020820190506020840283018581111561218a5761218961214f565b5b835b818110156121d157803567ffffffffffffffff8111156121af576121ae611c14565b5b8086016121bc8982611d2c565b8552602085019450505060208101905061218c565b5050509392505050565b600082601f8301126121f0576121ef611c14565b5b8135612200848260208601612154565b91505092915050565b6000806000806080858703121561222357612222611b9e565b5b600085013567ffffffffffffffff81111561224157612240611ba3565b5b61224d87828801611d2c565b945050602085013567ffffffffffffffff81111561226e5761226d611ba3565b5b61227a878288016121db565b935050604061228b87828801611bbf565b925050606085013567ffffffffffffffff8111156122ac576122ab611ba3565b5b6122b887828801611d2c565b91505092959194509250565b7f4e487b7100000000000000000000000000000000000000000000000000000000600052602160045260246000fd5b60028110612304576123036122c4565b5b50565b6000819050612315826122f3565b919050565b600061232582612307565b9050919050565b6123358161231a565b82525050565b600061016082019050612351600083018e611b6a565b8181036020830152612363818d611dfc565b9050612372604083018c61232c565b61237f606083018b611f82565b61238c608083018a611f82565b61239960a0830189611f82565b6123a660c0830188611b6a565b6123b360e0830187611b6a565b6123c1610100830186611b6a565b6123cf610120830185611b6a565b8181036101408301526123e28184611dfc565b90509c9b505050505050505050505050565b60008060006060848603121561240d5761240c611b9e565b5b600061241b86828701611bbf565b935050602084013567ffffffffffffffff81111561243c5761243b611ba3565b5b61244886828701611d2c565b925050604061245986828701611bbf565b9150509250925092565b61246c81611f0b565b82525050565b60006020820190506124876000830184612463565b92915050565b7f4f6e6c792061646d696e00000000000000000000000000000000000000000000600082015250565b60006124c3600a83611dc1565b91506124ce8261248d565b602082019050919050565b600060208201905081810360008301526124f2816124b6565b9050919050565b600081905092915050565b600061250f82611db6565b61251981856124f9565b9350612529818560208601611dd2565b80840191505092915050565b60006125418284612504565b915081905092915050565b7f53747564656e74206861736e277420766f746564000000000000000000000000600082015250565b6000612582601483611dc1565b915061258d8261254c565b602082019050919050565b600060208201905081810360008301526125b181612575565b9050919050565b7f4e487b7100000000000000000000000000000000000000000000000000000000600052603260045260246000fd5b7f4e487b7100000000000000000000000000000000000000000000000000000000600052602260045260246000fd5b6000600282049050600182168061262e57607f821691505b602082108103612641576126406125e7565b5b50919050565b7f43616e6e6f7420636f6d706c6574652079657400000000000000000000000000600082015250565b600061267d601383611dc1565b915061268882612647565b602082019050919050565b600060208201905081810360008301526126ac81612670565b9050919050565b7f4e487b7100000000000000000000000000000000000000000000000000000000600052601160045260246000fd5b60006126ed82611b60565b91506126f883611b60565b92508282019050808211156127105761270f6126b3565b5b92915050565b7f41646d696e20677261636520706572696f64206e6f74206f7665720000000000600082015250565b600061274c601b83611dc1565b915061275782612716565b602082019050919050565b6000602082019050818103600083015261277b8161273f565b9050919050565b600061278d82611b60565b91507fffffffffffffffffffffffffffffffffffffffffffffffffffffffffffffffff82036127bf576127be6126b3565b5b600182019050919050565b60008190508160005260206000209050919050565b60006020601f8301049050919050565b600082821b905092915050565b60006008830261282c7fffffffffffffffffffffffffffffffffffffffffffffffffffffffffffffffff826127ef565b61283686836127ef565b95508019841693508086168417925050509392505050565b6000819050919050565b600061287361286e61286984611b60565b61284e565b611b60565b9050919050565b6000819050919050565b61288d83612858565b6128a16128998261287a565b8484546127fc565b825550505050565b600090565b6128b66128a9565b6128c1818484612884565b505050565b5b818110156128e5576128da6000826128ae565b6001810190506128c7565b5050565b601f82111561292a576128fb816127ca565b612904846127df565b81016020851015612913578190505b61292761291f856127df565b8301826128c6565b50505b505050565b600082821c905092915050565b600061294d6000198460080261292f565b1980831691505092915050565b6000612966838361293c565b9150826002028217905092915050565b61297f82611db6565b67ffffffffffffffff81111561299857612997611c2f565b5b6129a28254612616565b6129ad8282856128e9565b600060209050601f8311600181146129e057600084156129ce578287015190505b6129d8858261295a565b865550612a40565b601f1984166129ee866127ca565b60005b82811015612a16578489015182556001820191506020850194506020810190506129f1565b86831015612a335784890151612a2f601f89168261293c565b8355505b6001600288020188555050505b505050505050565b6000606082019050612a5d6000830186611b6a565b8181036020830152612a6f8185611dfc565b9050612a7e604083018461232c565b949350505050565b7f4f6e6c7920666f7220636f6d6d697474656520706f6c6c000000000000000000600082015250565b6000612abc601783611dc1565b9150612ac782612a86565b602082019050919050565b60006020820190508181036000830152612aeb81612aaf565b9050919050565b7f4e6f7420696e2063616e646964617465206a6f696e2077696e646f7700000000600082015250565b6000612b28601c83611dc1565b9150612b3382612af2565b602082019050919050565b60006020820190508181036000830152612b5781612b1b565b9050919050565b6000604082019050612b736000830185611b6a565b8181036020830152612b858184611dfc565b90509392505050565b60006040820190508181036000830152612ba88185611dfc565b9050612bb76020830184611b6a565b9392505050565b7f4e6f7420616c6c6f776564000000000000000000000000000000000000000000600082015250565b6000612bf4600b83611dc1565b9150612bff82612bbe565b602082019050919050565b60006020820190508181036000830152612c2381612be7565b9050919050565b7f4e6f7420656e6f7567682063616e646964617465730000000000000000000000600082015250565b6000612c60601583611dc1565b9150612c6b82612c2a565b602082019050919050565b60006020820190508181036000830152612c8f81612c53565b9050919050565b7f566f74696e67206e6f7420737461727465640000000000000000000000000000600082015250565b6000612ccc601283611dc1565b9150612cd782612c96565b602082019050919050565b60006020820190508181036000830152612cfb81612cbf565b9050919050565b7f566f74696e6720636c6f73656400000000000000000000000000000000000000600082015250565b6000612d38600d83611dc1565b9150612d4382612d02565b602082019050919050565b60006020820190508181036000830152612d6781612d2b565b9050919050565b7f416c726561647920766f74656400000000000000000000000000000000000000600082015250565b6000612da4600d83611dc1565b9150612daf82612d6e565b602082019050919050565b60006020820190508181036000830152612dd381612d97565b9050919050565b60008154612de781612616565b612df181866124f9565b94506001821660008114612e0c5760018114612e2157612e54565b60ff1983168652811515820286019350612e54565b612e2a856127ca565b60005b83811015612e4c57815481890152600182019150602081019050612e2d565b838801955050505b50505092915050565b6000612e698284612dda565b915081905092915050565b60008154612e8181612616565b612e8b8186611dc1565b94506001821660008114612ea65760018114612ebc57612eef565b60ff198316865281151560200286019350612eef565b612ec5856127ca565b60005b83811015612ee757815481890152600182019150602081019050612ec8565b808801955050505b50505092915050565b6000606082019050612f0d6000830186611b6a565b8181036020830152612f1f8185611dfc565b90508181036040830152612f338184612e74565b9050949350505050565b60006060820190508181036000830152612f578186611dfc565b9050612f666020830185611b6a565b8181036040830152612f788184611dfc565b9050949350505050565b600081549050919050565b60008190508160005260206000209050919050565b60008154612faf81612616565b612fb98186611fd8565b94506001821660008114612fd45760018114612fea5761301d565b60ff19831686528115156020028601935061301d565b612ff3856127ca565b60005b8381101561301557815481890152600182019150602081019050612ff6565b808801955050505b50505092915050565b60006130328383612fa2565b905092915050565b6000600182019050919050565b600061305282612f82565b61305c8185611fb7565b93508360208202850161306e85612f8d565b8060005b858110156130a95784840389528161308a8582613026565b94506130958361303a565b925060208a01995050600181019050613072565b50829750879550505050505092915050565b600060208201905081810360008301526130d58184613047565b905092915050565b7f4e487b7100000000000000000000000000000000000000000000000000000000600052601260045260246000fd5b600061311782611b60565b915061312283611b60565b925082613132576131316130dd565b5b82820490509291505056fea2646970667358221220715183e0dc0757908c09002556f90fb6e6e157165319a69597ab6bfa12da554264736f6c63430008130033",
  "linkReferences": {},
  "deployedLinkReferences": {}
}